{
  "_format": "hh-sol-artifact-1",
  "contractName": "FractionalNFT",
  "sourceName": "src/backend/contracts/FractionalNFT.sol",
  "abi": [
    {
      "inputs": [],
      "stateMutability": "nonpayable",
      "type": "constructor"
    },
    {
      "anonymous": false,
      "inputs": [
        {
          "indexed": true,
          "internalType": "address",
          "name": "owner",
          "type": "address"
        },
        {
          "indexed": true,
          "internalType": "address",
          "name": "approved",
          "type": "address"
        },
        {
          "indexed": true,
          "internalType": "uint256",
          "name": "tokenId",
          "type": "uint256"
        }
      ],
      "name": "Approval",
      "type": "event"
    },
    {
      "anonymous": false,
      "inputs": [
        {
          "indexed": true,
          "internalType": "address",
          "name": "owner",
          "type": "address"
        },
        {
          "indexed": true,
          "internalType": "address",
          "name": "operator",
          "type": "address"
        },
        {
          "indexed": false,
          "internalType": "bool",
          "name": "approved",
          "type": "bool"
        }
      ],
      "name": "ApprovalForAll",
      "type": "event"
    },
    {
      "anonymous": false,
      "inputs": [
        {
          "indexed": true,
          "internalType": "address",
          "name": "previousOwner",
          "type": "address"
        },
        {
          "indexed": true,
          "internalType": "address",
          "name": "newOwner",
          "type": "address"
        }
      ],
      "name": "OwnershipTransferred",
      "type": "event"
    },
    {
      "anonymous": false,
      "inputs": [
        {
          "indexed": true,
          "internalType": "address",
          "name": "from",
          "type": "address"
        },
        {
          "indexed": true,
          "internalType": "address",
          "name": "to",
          "type": "address"
        },
        {
          "indexed": true,
          "internalType": "uint256",
          "name": "tokenId",
          "type": "uint256"
        }
      ],
      "name": "Transfer",
      "type": "event"
    },
    {
      "inputs": [
        {
          "internalType": "address",
          "name": "to",
          "type": "address"
        },
        {
          "internalType": "uint256",
          "name": "tokenId",
          "type": "uint256"
        }
      ],
      "name": "approve",
      "outputs": [],
      "stateMutability": "nonpayable",
      "type": "function"
    },
    {
      "inputs": [
        {
          "internalType": "address",
          "name": "owner",
          "type": "address"
        }
      ],
      "name": "balanceOf",
      "outputs": [
        {
          "internalType": "uint256",
          "name": "",
          "type": "uint256"
        }
      ],
      "stateMutability": "view",
      "type": "function"
    },
    {
      "inputs": [
        {
          "internalType": "uint256",
          "name": "",
          "type": "uint256"
        }
      ],
      "name": "fractionalProperties",
      "outputs": [
        {
          "internalType": "uint256",
          "name": "totalSupply",
          "type": "uint256"
        },
        {
          "internalType": "uint256",
          "name": "tokenizedSupply",
          "type": "uint256"
        }
      ],
      "stateMutability": "view",
      "type": "function"
    },
    {
      "inputs": [
        {
          "internalType": "uint256",
          "name": "tokenId",
          "type": "uint256"
        }
      ],
      "name": "getApproved",
      "outputs": [
        {
          "internalType": "address",
          "name": "",
          "type": "address"
        }
      ],
      "stateMutability": "view",
      "type": "function"
    },
    {
      "inputs": [
        {
          "internalType": "uint256",
          "name": "_tokenId",
          "type": "uint256"
        }
      ],
      "name": "getFractionalTokenOwner",
      "outputs": [
        {
          "internalType": "address",
          "name": "",
          "type": "address"
        }
      ],
      "stateMutability": "view",
      "type": "function"
    },
    {
      "inputs": [
        {
          "internalType": "address",
          "name": "owner",
          "type": "address"
        },
        {
          "internalType": "address",
          "name": "operator",
          "type": "address"
        }
      ],
      "name": "isApprovedForAll",
      "outputs": [
        {
          "internalType": "bool",
          "name": "",
          "type": "bool"
        }
      ],
      "stateMutability": "view",
      "type": "function"
    },
    {
      "inputs": [
        {
          "internalType": "uint256",
          "name": "_propertyId",
          "type": "uint256"
        },
        {
          "internalType": "uint256",
          "name": "_amount",
          "type": "uint256"
        }
      ],
      "name": "mintFractionalToken",
      "outputs": [],
      "stateMutability": "nonpayable",
      "type": "function"
    },
    {
      "inputs": [],
      "name": "name",
      "outputs": [
        {
          "internalType": "string",
          "name": "",
          "type": "string"
        }
      ],
      "stateMutability": "view",
      "type": "function"
    },
    {
      "inputs": [],
      "name": "owner",
      "outputs": [
        {
          "internalType": "address",
          "name": "",
          "type": "address"
        }
      ],
      "stateMutability": "view",
      "type": "function"
    },
    {
      "inputs": [
        {
          "internalType": "uint256",
          "name": "tokenId",
          "type": "uint256"
        }
      ],
      "name": "ownerOf",
      "outputs": [
        {
          "internalType": "address",
          "name": "",
          "type": "address"
        }
      ],
      "stateMutability": "view",
      "type": "function"
    },
    {
      "inputs": [
        {
          "internalType": "uint256",
          "name": "",
          "type": "uint256"
        }
      ],
      "name": "propertyStartingTokenId",
      "outputs": [
        {
          "internalType": "uint256",
          "name": "",
          "type": "uint256"
        }
      ],
      "stateMutability": "view",
      "type": "function"
    },
    {
      "inputs": [],
      "name": "renounceOwnership",
      "outputs": [],
      "stateMutability": "nonpayable",
      "type": "function"
    },
    {
      "inputs": [
        {
          "internalType": "address",
          "name": "from",
          "type": "address"
        },
        {
          "internalType": "address",
          "name": "to",
          "type": "address"
        },
        {
          "internalType": "uint256",
          "name": "tokenId",
          "type": "uint256"
        }
      ],
      "name": "safeTransferFrom",
      "outputs": [],
      "stateMutability": "nonpayable",
      "type": "function"
    },
    {
      "inputs": [
        {
          "internalType": "address",
          "name": "from",
          "type": "address"
        },
        {
          "internalType": "address",
          "name": "to",
          "type": "address"
        },
        {
          "internalType": "uint256",
          "name": "tokenId",
          "type": "uint256"
        },
        {
          "internalType": "bytes",
          "name": "_data",
          "type": "bytes"
        }
      ],
      "name": "safeTransferFrom",
      "outputs": [],
      "stateMutability": "nonpayable",
      "type": "function"
    },
    {
      "inputs": [
        {
          "internalType": "address",
          "name": "operator",
          "type": "address"
        },
        {
          "internalType": "bool",
          "name": "approved",
          "type": "bool"
        }
      ],
      "name": "setApprovalForAll",
      "outputs": [],
      "stateMutability": "nonpayable",
      "type": "function"
    },
    {
      "inputs": [
        {
          "internalType": "bytes4",
          "name": "interfaceId",
          "type": "bytes4"
        }
      ],
      "name": "supportsInterface",
      "outputs": [
        {
          "internalType": "bool",
          "name": "",
          "type": "bool"
        }
      ],
      "stateMutability": "view",
      "type": "function"
    },
    {
      "inputs": [],
      "name": "symbol",
      "outputs": [
        {
          "internalType": "string",
          "name": "",
          "type": "string"
        }
      ],
      "stateMutability": "view",
      "type": "function"
    },
    {
      "inputs": [
        {
          "internalType": "uint256",
          "name": "tokenId",
          "type": "uint256"
        }
      ],
      "name": "tokenURI",
      "outputs": [
        {
          "internalType": "string",
          "name": "",
          "type": "string"
        }
      ],
      "stateMutability": "view",
      "type": "function"
    },
    {
      "inputs": [
        {
          "internalType": "uint256",
          "name": "_propertyId",
          "type": "uint256"
        },
        {
          "internalType": "uint256",
          "name": "_totalSupply",
          "type": "uint256"
        }
      ],
      "name": "tokenizeProperty",
      "outputs": [],
      "stateMutability": "nonpayable",
      "type": "function"
    },
    {
      "inputs": [
        {
          "internalType": "uint256",
          "name": "_tokenId",
          "type": "uint256"
        },
        {
          "internalType": "address",
          "name": "_to",
          "type": "address"
        }
      ],
      "name": "transferFractionalToken",
      "outputs": [],
      "stateMutability": "nonpayable",
      "type": "function"
    },
    {
      "inputs": [
        {
          "internalType": "address",
          "name": "from",
          "type": "address"
        },
        {
          "internalType": "address",
          "name": "to",
          "type": "address"
        },
        {
          "internalType": "uint256",
          "name": "tokenId",
          "type": "uint256"
        }
      ],
      "name": "transferFrom",
      "outputs": [],
      "stateMutability": "nonpayable",
      "type": "function"
    },
    {
      "inputs": [
        {
          "internalType": "address",
          "name": "newOwner",
          "type": "address"
        }
      ],
      "name": "transferOwnership",
      "outputs": [],
      "stateMutability": "nonpayable",
      "type": "function"
    }
  ],
  "bytecode": "0x60806040523480156200001157600080fd5b506040518060400160405280600d81526020017f4672616374696f6e616c4e4654000000000000000000000000000000000000008152506040518060400160405280600481526020017f464e465400000000000000000000000000000000000000000000000000000000815250816000908051906020019062000096929190620001a6565b508060019080519060200190620000af929190620001a6565b505050620000d2620000c6620000d860201b60201c565b620000e060201b60201c565b620002bb565b600033905090565b6000600660009054906101000a900473ffffffffffffffffffffffffffffffffffffffff16905081600660006101000a81548173ffffffffffffffffffffffffffffffffffffffff021916908373ffffffffffffffffffffffffffffffffffffffff1602179055508173ffffffffffffffffffffffffffffffffffffffff168173ffffffffffffffffffffffffffffffffffffffff167f8be0079c531659141344cd1fd0a4f28419497f9722a3daafe3b4186f6b6457e060405160405180910390a35050565b828054620001b49062000256565b90600052602060002090601f016020900481019282620001d8576000855562000224565b82601f10620001f357805160ff191683800117855562000224565b8280016001018555821562000224579182015b828111156200022357825182559160200191906001019062000206565b5b50905062000233919062000237565b5090565b5b808211156200025257600081600090555060010162000238565b5090565b600060028204905060018216806200026f57607f821691505b602082108114156200028657620002856200028c565b5b50919050565b7f4e487b7100000000000000000000000000000000000000000000000000000000600052602260045260246000fd5b6134ea80620002cb6000396000f3fe608060405234801561001057600080fd5b50600436106101425760003560e01c806370a08231116100b8578063a22cb4651161007c578063a22cb46514610374578063b88d4fde14610390578063c87b56dd146103ac578063d901130b146103dc578063e985e9c51461040c578063f2fde38b1461043c57610142565b806370a08231146102ce578063715018a6146102fe578063753ffad0146103085780638da5cb5b1461033857806395d89b411461035657610142565b8063236682701161010a57806323668270146101fd57806323b872dd146102195780632fb15aff1461023557806342842e0e1461026657806346bcfd3f146102825780636352211e1461029e57610142565b806301ffc9a71461014757806306fdde0314610177578063081812fc14610195578063095ea7b3146101c55780630af7dced146101e1575b600080fd5b610161600480360381019061015c9190612245565b610458565b60405161016e9190612795565b60405180910390f35b61017f61053a565b60405161018c91906127b0565b60405180910390f35b6101af60048036038101906101aa9190612297565b6105cc565b6040516101bc919061272e565b60405180910390f35b6101df60048036038101906101da9190612209565b610651565b005b6101fb60048036038101906101f691906122fc565b610769565b005b610217600480360381019061021291906122c0565b6108f3565b005b610233600480360381019061022e9190612103565b6109c0565b005b61024f600480360381019061024a9190612297565b610a20565b60405161025d929190612aad565b60405180910390f35b610280600480360381019061027b9190612103565b610a44565b005b61029c600480360381019061029791906122fc565b610a64565b005b6102b860048036038101906102b39190612297565b610c64565b6040516102c5919061272e565b60405180910390f35b6102e860048036038101906102e3919061209e565b610d16565b6040516102f59190612a92565b60405180910390f35b610306610dce565b005b610322600480360381019061031d9190612297565b610e56565b60405161032f9190612a92565b60405180910390f35b610340610e6e565b60405161034d919061272e565b60405180910390f35b61035e610e98565b60405161036b91906127b0565b60405180910390f35b61038e600480360381019061038991906121cd565b610f2a565b005b6103aa60048036038101906103a59190612152565b610f40565b005b6103c660048036038101906103c19190612297565b610fa2565b6040516103d391906127b0565b60405180910390f35b6103f660048036038101906103f19190612297565b611049565b604051610403919061272e565b60405180910390f35b610426600480360381019061042191906120c7565b6110fb565b6040516104339190612795565b60405180910390f35b6104566004803603810190610451919061209e565b61118f565b005b60007f80ac58cd000000000000000000000000000000000000000000000000000000007bffffffffffffffffffffffffffffffffffffffffffffffffffffffff1916827bffffffffffffffffffffffffffffffffffffffffffffffffffffffff1916148061052357507f5b5e139f000000000000000000000000000000000000000000000000000000007bffffffffffffffffffffffffffffffffffffffffffffffffffffffff1916827bffffffffffffffffffffffffffffffffffffffffffffffffffffffff1916145b80610533575061053282611287565b5b9050919050565b60606000805461054990612d3a565b80601f016020809104026020016040519081016040528092919081815260200182805461057590612d3a565b80156105c25780601f10610597576101008083540402835291602001916105c2565b820191906000526020600020905b8154815290600101906020018083116105a557829003601f168201915b5050505050905090565b60006105d7826112f1565b610616576040517f08c379a000000000000000000000000000000000000000000000000000000000815260040161060d906129b2565b60405180910390fd5b6004600083815260200190815260200160002060009054906101000a900473ffffffffffffffffffffffffffffffffffffffff169050919050565b600061065c82610c64565b90508073ffffffffffffffffffffffffffffffffffffffff168373ffffffffffffffffffffffffffffffffffffffff1614156106cd576040517f08c379a00000000000000000000000000000000000000000000000000000000081526004016106c490612a32565b60405180910390fd5b8073ffffffffffffffffffffffffffffffffffffffff166106ec61135d565b73ffffffffffffffffffffffffffffffffffffffff16148061071b575061071a8161071561135d565b6110fb565b5b61075a576040517f08c379a0000000000000000000000000000000000000000000000000000000008152600401610751906128f2565b60405180910390fd5b6107648383611365565b505050565b61077161135d565b73ffffffffffffffffffffffffffffffffffffffff1661078f610e6e565b73ffffffffffffffffffffffffffffffffffffffff16146107e5576040517f08c379a00000000000000000000000000000000000000000000000000000000081526004016107dc906129d2565b60405180910390fd5b60008111610828576040517f08c379a000000000000000000000000000000000000000000000000000000000815260040161081f90612a72565b60405180910390fd5b6000600760008481526020019081526020016000206000015414610881576040517f08c379a0000000000000000000000000000000000000000000000000000000008152600401610878906129f2565b60405180910390fd5b806007600084815260200190815260200160002060000181905550600060076000848152602001908152602001600020600101819055506001670de0b6b3a7640000836108ce9190612bf6565b6108d89190612b6f565b60086000848152602001908152602001600020819055505050565b6108fc826112f1565b61093b576040517f08c379a000000000000000000000000000000000000000000000000000000000815260040161093290612892565b60405180910390fd5b3373ffffffffffffffffffffffffffffffffffffffff1661095b83610c64565b73ffffffffffffffffffffffffffffffffffffffff16146109b1576040517f08c379a00000000000000000000000000000000000000000000000000000000081526004016109a890612912565b60405180910390fd5b6109bc33828461141e565b5050565b6109d16109cb61135d565b82611685565b610a10576040517f08c379a0000000000000000000000000000000000000000000000000000000008152600401610a0790612a52565b60405180910390fd5b610a1b83838361141e565b505050565b60076020528060005260406000206000915090508060000154908060010154905082565b610a5f83838360405180602001604052806000815250610f40565b505050565b610a6c61135d565b73ffffffffffffffffffffffffffffffffffffffff16610a8a610e6e565b73ffffffffffffffffffffffffffffffffffffffff1614610ae0576040517f08c379a0000000000000000000000000000000000000000000000000000000008152600401610ad7906129d2565b60405180910390fd5b60006007600084815260200190815260200160002090506000816000015411610b3e576040517f08c379a0000000000000000000000000000000000000000000000000000000008152600401610b3590612972565b60405180910390fd5b8060000154828260010154610b539190612b6f565b1115610b94576040517f08c379a0000000000000000000000000000000000000000000000000000000008152600401610b8b906128b2565b60405180910390fd5b60005b82811015610c5e57816001016000815480929190610bb490612d9d565b91905055506000600183600101546008600088815260200190815260200160002054610be09190612b6f565b610bea9190612c50565b9050610bf63382611763565b3383600201600083815260200190815260200160002060006101000a81548173ffffffffffffffffffffffffffffffffffffffff021916908373ffffffffffffffffffffffffffffffffffffffff160217905550508080610c5690612d9d565b915050610b97565b50505050565b6000806002600084815260200190815260200160002060009054906101000a900473ffffffffffffffffffffffffffffffffffffffff169050600073ffffffffffffffffffffffffffffffffffffffff168173ffffffffffffffffffffffffffffffffffffffff161415610d0d576040517f08c379a0000000000000000000000000000000000000000000000000000000008152600401610d0490612952565b60405180910390fd5b80915050919050565b60008073ffffffffffffffffffffffffffffffffffffffff168273ffffffffffffffffffffffffffffffffffffffff161415610d87576040517f08c379a0000000000000000000000000000000000000000000000000000000008152600401610d7e90612932565b60405180910390fd5b600360008373ffffffffffffffffffffffffffffffffffffffff1673ffffffffffffffffffffffffffffffffffffffff168152602001908152602001600020549050919050565b610dd661135d565b73ffffffffffffffffffffffffffffffffffffffff16610df4610e6e565b73ffffffffffffffffffffffffffffffffffffffff1614610e4a576040517f08c379a0000000000000000000000000000000000000000000000000000000008152600401610e41906129d2565b60405180910390fd5b610e546000611781565b565b60086020528060005260406000206000915090505481565b6000600660009054906101000a900473ffffffffffffffffffffffffffffffffffffffff16905090565b606060018054610ea790612d3a565b80601f0160208091040260200160405190810160405280929190818152602001828054610ed390612d3a565b8015610f205780601f10610ef557610100808354040283529160200191610f20565b820191906000526020600020905b815481529060010190602001808311610f0357829003601f168201915b5050505050905090565b610f3c610f3561135d565b8383611847565b5050565b610f51610f4b61135d565b83611685565b610f90576040517f08c379a0000000000000000000000000000000000000000000000000000000008152600401610f8790612a52565b60405180910390fd5b610f9c848484846119b4565b50505050565b6060610fad826112f1565b610fec576040517f08c379a0000000000000000000000000000000000000000000000000000000008152600401610fe390612a12565b60405180910390fd5b6000610ff6611a10565b905060008151116110165760405180602001604052806000815250611041565b8061102084611a27565b60405160200161103192919061270a565b6040516020818303038152906040525b915050919050565b6000611054826112f1565b611093576040517f08c379a000000000000000000000000000000000000000000000000000000000815260040161108a90612892565b60405180910390fd5b6000670de0b6b3a7640000836110a99190612bc5565b905060076000828152602001908152602001600020600201600084815260200190815260200160002060009054906101000a900473ffffffffffffffffffffffffffffffffffffffff16915050919050565b6000600560008473ffffffffffffffffffffffffffffffffffffffff1673ffffffffffffffffffffffffffffffffffffffff16815260200190815260200160002060008373ffffffffffffffffffffffffffffffffffffffff1673ffffffffffffffffffffffffffffffffffffffff16815260200190815260200160002060009054906101000a900460ff16905092915050565b61119761135d565b73ffffffffffffffffffffffffffffffffffffffff166111b5610e6e565b73ffffffffffffffffffffffffffffffffffffffff161461120b576040517f08c379a0000000000000000000000000000000000000000000000000000000008152600401611202906129d2565b60405180910390fd5b600073ffffffffffffffffffffffffffffffffffffffff168173ffffffffffffffffffffffffffffffffffffffff16141561127b576040517f08c379a0000000000000000000000000000000000000000000000000000000008152600401611272906127f2565b60405180910390fd5b61128481611781565b50565b60007f01ffc9a7000000000000000000000000000000000000000000000000000000007bffffffffffffffffffffffffffffffffffffffffffffffffffffffff1916827bffffffffffffffffffffffffffffffffffffffffffffffffffffffff1916149050919050565b60008073ffffffffffffffffffffffffffffffffffffffff166002600084815260200190815260200160002060009054906101000a900473ffffffffffffffffffffffffffffffffffffffff1673ffffffffffffffffffffffffffffffffffffffff1614159050919050565b600033905090565b816004600083815260200190815260200160002060006101000a81548173ffffffffffffffffffffffffffffffffffffffff021916908373ffffffffffffffffffffffffffffffffffffffff160217905550808273ffffffffffffffffffffffffffffffffffffffff166113d883610c64565b73ffffffffffffffffffffffffffffffffffffffff167f8c5be1e5ebec7d5bd14f71427d1e84f3dd0314c0f7b2291e5b200ac8c7c3b92560405160405180910390a45050565b8273ffffffffffffffffffffffffffffffffffffffff1661143e82610c64565b73ffffffffffffffffffffffffffffffffffffffff1614611494576040517f08c379a000000000000000000000000000000000000000000000000000000000815260040161148b90612812565b60405180910390fd5b600073ffffffffffffffffffffffffffffffffffffffff168273ffffffffffffffffffffffffffffffffffffffff161415611504576040517f08c379a00000000000000000000000000000000000000000000000000000000081526004016114fb90612852565b60405180910390fd5b61150f838383611bd4565b61151a600082611365565b6001600360008573ffffffffffffffffffffffffffffffffffffffff1673ffffffffffffffffffffffffffffffffffffffff168152602001908152602001600020600082825461156a9190612c50565b925050819055506001600360008473ffffffffffffffffffffffffffffffffffffffff1673ffffffffffffffffffffffffffffffffffffffff16815260200190815260200160002060008282546115c19190612b6f565b92505081905550816002600083815260200190815260200160002060006101000a81548173ffffffffffffffffffffffffffffffffffffffff021916908373ffffffffffffffffffffffffffffffffffffffff160217905550808273ffffffffffffffffffffffffffffffffffffffff168473ffffffffffffffffffffffffffffffffffffffff167fddf252ad1be2c89b69c2b068fc378daa952ba7f163c4a11628f55a4df523b3ef60405160405180910390a4611680838383611bd9565b505050565b6000611690826112f1565b6116cf576040517f08c379a00000000000000000000000000000000000000000000000000000000081526004016116c6906128d2565b60405180910390fd5b60006116da83610c64565b90508073ffffffffffffffffffffffffffffffffffffffff168473ffffffffffffffffffffffffffffffffffffffff16148061174957508373ffffffffffffffffffffffffffffffffffffffff16611731846105cc565b73ffffffffffffffffffffffffffffffffffffffff16145b8061175a575061175981856110fb565b5b91505092915050565b61177d828260405180602001604052806000815250611bde565b5050565b6000600660009054906101000a900473ffffffffffffffffffffffffffffffffffffffff16905081600660006101000a81548173ffffffffffffffffffffffffffffffffffffffff021916908373ffffffffffffffffffffffffffffffffffffffff1602179055508173ffffffffffffffffffffffffffffffffffffffff168173ffffffffffffffffffffffffffffffffffffffff167f8be0079c531659141344cd1fd0a4f28419497f9722a3daafe3b4186f6b6457e060405160405180910390a35050565b8173ffffffffffffffffffffffffffffffffffffffff168373ffffffffffffffffffffffffffffffffffffffff1614156118b6576040517f08c379a00000000000000000000000000000000000000000000000000000000081526004016118ad90612872565b60405180910390fd5b80600560008573ffffffffffffffffffffffffffffffffffffffff1673ffffffffffffffffffffffffffffffffffffffff16815260200190815260200160002060008473ffffffffffffffffffffffffffffffffffffffff1673ffffffffffffffffffffffffffffffffffffffff16815260200190815260200160002060006101000a81548160ff0219169083151502179055508173ffffffffffffffffffffffffffffffffffffffff168373ffffffffffffffffffffffffffffffffffffffff167f17307eab39ab6107e8899845ad3d59bd9653f200f220920489ca2b5937696c31836040516119a79190612795565b60405180910390a3505050565b6119bf84848461141e565b6119cb84848484611c39565b611a0a576040517f08c379a0000000000000000000000000000000000000000000000000000000008152600401611a01906127d2565b60405180910390fd5b50505050565b606060405180602001604052806000815250905090565b60606000821415611a6f576040518060400160405280600181526020017f30000000000000000000000000000000000000000000000000000000000000008152509050611bcf565b600082905060005b60008214611aa1578080611a8a90612d9d565b915050600a82611a9a9190612bc5565b9150611a77565b60008167ffffffffffffffff811115611ae3577f4e487b7100000000000000000000000000000000000000000000000000000000600052604160045260246000fd5b6040519080825280601f01601f191660200182016040528015611b155781602001600182028036833780820191505090505b5090505b60008514611bc857600182611b2e9190612c50565b9150600a85611b3d9190612de6565b6030611b499190612b6f565b60f81b818381518110611b85577f4e487b7100000000000000000000000000000000000000000000000000000000600052603260045260246000fd5b60200101907effffffffffffffffffffffffffffffffffffffffffffffffffffffffffffff1916908160001a905350600a85611bc19190612bc5565b9450611b19565b8093505050505b919050565b505050565b505050565b611be88383611dd0565b611bf56000848484611c39565b611c34576040517f08c379a0000000000000000000000000000000000000000000000000000000008152600401611c2b906127d2565b60405180910390fd5b505050565b6000611c5a8473ffffffffffffffffffffffffffffffffffffffff16611faa565b15611dc3578373ffffffffffffffffffffffffffffffffffffffff1663150b7a02611c8361135d565b8786866040518563ffffffff1660e01b8152600401611ca59493929190612749565b602060405180830381600087803b158015611cbf57600080fd5b505af1925050508015611cf057506040513d601f19601f82011682018060405250810190611ced919061226e565b60015b611d73573d8060008114611d20576040519150601f19603f3d011682016040523d82523d6000602084013e611d25565b606091505b50600081511415611d6b576040517f08c379a0000000000000000000000000000000000000000000000000000000008152600401611d62906127d2565b60405180910390fd5b805181602001fd5b63150b7a0260e01b7bffffffffffffffffffffffffffffffffffffffffffffffffffffffff1916817bffffffffffffffffffffffffffffffffffffffffffffffffffffffff191614915050611dc8565b600190505b949350505050565b600073ffffffffffffffffffffffffffffffffffffffff168273ffffffffffffffffffffffffffffffffffffffff161415611e40576040517f08c379a0000000000000000000000000000000000000000000000000000000008152600401611e3790612992565b60405180910390fd5b611e49816112f1565b15611e89576040517f08c379a0000000000000000000000000000000000000000000000000000000008152600401611e8090612832565b60405180910390fd5b611e9560008383611bd4565b6001600360008473ffffffffffffffffffffffffffffffffffffffff1673ffffffffffffffffffffffffffffffffffffffff1681526020019081526020016000206000828254611ee59190612b6f565b92505081905550816002600083815260200190815260200160002060006101000a81548173ffffffffffffffffffffffffffffffffffffffff021916908373ffffffffffffffffffffffffffffffffffffffff160217905550808273ffffffffffffffffffffffffffffffffffffffff16600073ffffffffffffffffffffffffffffffffffffffff167fddf252ad1be2c89b69c2b068fc378daa952ba7f163c4a11628f55a4df523b3ef60405160405180910390a4611fa660008383611bd9565b5050565b6000808273ffffffffffffffffffffffffffffffffffffffff163b119050919050565b6000611fe0611fdb84612afb565b612ad6565b905082815260208101848484011115611ff857600080fd5b612003848285612cf8565b509392505050565b60008135905061201a81613458565b92915050565b60008135905061202f8161346f565b92915050565b60008135905061204481613486565b92915050565b60008151905061205981613486565b92915050565b600082601f83011261207057600080fd5b8135612080848260208601611fcd565b91505092915050565b6000813590506120988161349d565b92915050565b6000602082840312156120b057600080fd5b60006120be8482850161200b565b91505092915050565b600080604083850312156120da57600080fd5b60006120e88582860161200b565b92505060206120f98582860161200b565b9150509250929050565b60008060006060848603121561211857600080fd5b60006121268682870161200b565b93505060206121378682870161200b565b925050604061214886828701612089565b9150509250925092565b6000806000806080858703121561216857600080fd5b60006121768782880161200b565b94505060206121878782880161200b565b935050604061219887828801612089565b925050606085013567ffffffffffffffff8111156121b557600080fd5b6121c18782880161205f565b91505092959194509250565b600080604083850312156121e057600080fd5b60006121ee8582860161200b565b92505060206121ff85828601612020565b9150509250929050565b6000806040838503121561221c57600080fd5b600061222a8582860161200b565b925050602061223b85828601612089565b9150509250929050565b60006020828403121561225757600080fd5b600061226584828501612035565b91505092915050565b60006020828403121561228057600080fd5b600061228e8482850161204a565b91505092915050565b6000602082840312156122a957600080fd5b60006122b784828501612089565b91505092915050565b600080604083850312156122d357600080fd5b60006122e185828601612089565b92505060206122f28582860161200b565b9150509250929050565b6000806040838503121561230f57600080fd5b600061231d85828601612089565b925050602061232e85828601612089565b9150509250929050565b61234181612c84565b82525050565b61235081612c96565b82525050565b600061236182612b2c565b61236b8185612b42565b935061237b818560208601612d07565b61238481612ed3565b840191505092915050565b600061239a82612b37565b6123a48185612b53565b93506123b4818560208601612d07565b6123bd81612ed3565b840191505092915050565b60006123d382612b37565b6123dd8185612b64565b93506123ed818560208601612d07565b80840191505092915050565b6000612406603283612b53565b915061241182612ee4565b604082019050919050565b6000612429602683612b53565b915061243482612f33565b604082019050919050565b600061244c602583612b53565b915061245782612f82565b604082019050919050565b600061246f601c83612b53565b915061247a82612fd1565b602082019050919050565b6000612492602483612b53565b915061249d82612ffa565b604082019050919050565b60006124b5601983612b53565b91506124c082613049565b602082019050919050565b60006124d8601483612b53565b91506124e382613072565b602082019050919050565b60006124fb601483612b53565b91506125068261309b565b602082019050919050565b600061251e602c83612b53565b9150612529826130c4565b604082019050919050565b6000612541603883612b53565b915061254c82613113565b604082019050919050565b6000612564600d83612b53565b915061256f82613162565b602082019050919050565b6000612587602a83612b53565b91506125928261318b565b604082019050919050565b60006125aa602983612b53565b91506125b5826131da565b604082019050919050565b60006125cd601683612b53565b91506125d882613229565b602082019050919050565b60006125f0602083612b53565b91506125fb82613252565b602082019050919050565b6000612613602c83612b53565b915061261e8261327b565b604082019050919050565b6000612636602083612b53565b9150612641826132ca565b602082019050919050565b6000612659601a83612b53565b9150612664826132f3565b602082019050919050565b600061267c602f83612b53565b91506126878261331c565b604082019050919050565b600061269f602183612b53565b91506126aa8261336b565b604082019050919050565b60006126c2603183612b53565b91506126cd826133ba565b604082019050919050565b60006126e5602683612b53565b91506126f082613409565b604082019050919050565b61270481612cee565b82525050565b600061271682856123c8565b915061272282846123c8565b91508190509392505050565b60006020820190506127436000830184612338565b92915050565b600060808201905061275e6000830187612338565b61276b6020830186612338565b61277860408301856126fb565b818103606083015261278a8184612356565b905095945050505050565b60006020820190506127aa6000830184612347565b92915050565b600060208201905081810360008301526127ca818461238f565b905092915050565b600060208201905081810360008301526127eb816123f9565b9050919050565b6000602082019050818103600083015261280b8161241c565b9050919050565b6000602082019050818103600083015261282b8161243f565b9050919050565b6000602082019050818103600083015261284b81612462565b9050919050565b6000602082019050818103600083015261286b81612485565b9050919050565b6000602082019050818103600083015261288b816124a8565b9050919050565b600060208201905081810360008301526128ab816124cb565b9050919050565b600060208201905081810360008301526128cb816124ee565b9050919050565b600060208201905081810360008301526128eb81612511565b9050919050565b6000602082019050818103600083015261290b81612534565b9050919050565b6000602082019050818103600083015261292b81612557565b9050919050565b6000602082019050818103600083015261294b8161257a565b9050919050565b6000602082019050818103600083015261296b8161259d565b9050919050565b6000602082019050818103600083015261298b816125c0565b9050919050565b600060208201905081810360008301526129ab816125e3565b9050919050565b600060208201905081810360008301526129cb81612606565b9050919050565b600060208201905081810360008301526129eb81612629565b9050919050565b60006020820190508181036000830152612a0b8161264c565b9050919050565b60006020820190508181036000830152612a2b8161266f565b9050919050565b60006020820190508181036000830152612a4b81612692565b9050919050565b60006020820190508181036000830152612a6b816126b5565b9050919050565b60006020820190508181036000830152612a8b816126d8565b9050919050565b6000602082019050612aa760008301846126fb565b92915050565b6000604082019050612ac260008301856126fb565b612acf60208301846126fb565b9392505050565b6000612ae0612af1565b9050612aec8282612d6c565b919050565b6000604051905090565b600067ffffffffffffffff821115612b1657612b15612ea4565b5b612b1f82612ed3565b9050602081019050919050565b600081519050919050565b600081519050919050565b600082825260208201905092915050565b600082825260208201905092915050565b600081905092915050565b6000612b7a82612cee565b9150612b8583612cee565b9250827fffffffffffffffffffffffffffffffffffffffffffffffffffffffffffffffff03821115612bba57612bb9612e17565b5b828201905092915050565b6000612bd082612cee565b9150612bdb83612cee565b925082612beb57612bea612e46565b5b828204905092915050565b6000612c0182612cee565b9150612c0c83612cee565b9250817fffffffffffffffffffffffffffffffffffffffffffffffffffffffffffffffff0483118215151615612c4557612c44612e17565b5b828202905092915050565b6000612c5b82612cee565b9150612c6683612cee565b925082821015612c7957612c78612e17565b5b828203905092915050565b6000612c8f82612cce565b9050919050565b60008115159050919050565b60007fffffffff0000000000000000000000000000000000000000000000000000000082169050919050565b600073ffffffffffffffffffffffffffffffffffffffff82169050919050565b6000819050919050565b82818337600083830152505050565b60005b83811015612d25578082015181840152602081019050612d0a565b83811115612d34576000848401525b50505050565b60006002820490506001821680612d5257607f821691505b60208210811415612d6657612d65612e75565b5b50919050565b612d7582612ed3565b810181811067ffffffffffffffff82111715612d9457612d93612ea4565b5b80604052505050565b6000612da882612cee565b91507fffffffffffffffffffffffffffffffffffffffffffffffffffffffffffffffff821415612ddb57612dda612e17565b5b600182019050919050565b6000612df182612cee565b9150612dfc83612cee565b925082612e0c57612e0b612e46565b5b828206905092915050565b7f4e487b7100000000000000000000000000000000000000000000000000000000600052601160045260246000fd5b7f4e487b7100000000000000000000000000000000000000000000000000000000600052601260045260246000fd5b7f4e487b7100000000000000000000000000000000000000000000000000000000600052602260045260246000fd5b7f4e487b7100000000000000000000000000000000000000000000000000000000600052604160045260246000fd5b6000601f19601f8301169050919050565b7f4552433732313a207472616e7366657220746f206e6f6e20455243373231526560008201527f63656976657220696d706c656d656e7465720000000000000000000000000000602082015250565b7f4f776e61626c653a206e6577206f776e657220697320746865207a65726f206160008201527f6464726573730000000000000000000000000000000000000000000000000000602082015250565b7f4552433732313a207472616e736665722066726f6d20696e636f72726563742060008201527f6f776e6572000000000000000000000000000000000000000000000000000000602082015250565b7f4552433732313a20746f6b656e20616c7265616479206d696e74656400000000600082015250565b7f4552433732313a207472616e7366657220746f20746865207a65726f2061646460008201527f7265737300000000000000000000000000000000000000000000000000000000602082015250565b7f4552433732313a20617070726f766520746f2063616c6c657200000000000000600082015250565b7f546f6b656e20646f6573206e6f74206578697374000000000000000000000000600082015250565b7f4578636565647320746f74616c20737570706c79000000000000000000000000600082015250565b7f4552433732313a206f70657261746f7220717565727920666f72206e6f6e657860008201527f697374656e7420746f6b656e0000000000000000000000000000000000000000602082015250565b7f4552433732313a20617070726f76652063616c6c6572206973206e6f74206f7760008201527f6e6572206e6f7220617070726f76656420666f7220616c6c0000000000000000602082015250565b7f4e6f7420746865206f776e657200000000000000000000000000000000000000600082015250565b7f4552433732313a2062616c616e636520717565727920666f7220746865207a6560008201527f726f206164647265737300000000000000000000000000000000000000000000602082015250565b7f4552433732313a206f776e657220717565727920666f72206e6f6e657869737460008201527f656e7420746f6b656e0000000000000000000000000000000000000000000000602082015250565b7f50726f7065727479206e6f7420746f6b656e697a656400000000000000000000600082015250565b7f4552433732313a206d696e7420746f20746865207a65726f2061646472657373600082015250565b7f4552433732313a20617070726f76656420717565727920666f72206e6f6e657860008201527f697374656e7420746f6b656e0000000000000000000000000000000000000000602082015250565b7f4f776e61626c653a2063616c6c6572206973206e6f7420746865206f776e6572600082015250565b7f50726f706572747920616c726561647920746f6b656e697a6564000000000000600082015250565b7f4552433732314d657461646174613a2055524920717565727920666f72206e6f60008201527f6e6578697374656e7420746f6b656e0000000000000000000000000000000000602082015250565b7f4552433732313a20617070726f76616c20746f2063757272656e74206f776e6560008201527f7200000000000000000000000000000000000000000000000000000000000000602082015250565b7f4552433732313a207472616e736665722063616c6c6572206973206e6f74206f60008201527f776e6572206e6f7220617070726f766564000000000000000000000000000000602082015250565b7f546f74616c20737570706c79206d75737420626520677265617465722074686160008201527f6e207a65726f0000000000000000000000000000000000000000000000000000602082015250565b61346181612c84565b811461346c57600080fd5b50565b61347881612c96565b811461348357600080fd5b50565b61348f81612ca2565b811461349a57600080fd5b50565b6134a681612cee565b81146134b157600080fd5b5056fea26469706673582212207c129ba1ad93c45a897b35a7c4fd0d45707874ea35b5875c4aa383c6aff2770664736f6c63430008040033",
  "linkReferences": {},
  "deployedLinkReferences": {}
}