{
  "_format": "hh-sol-artifact-1",
  "contractName": "Marketplace",
  "sourceName": "src/backend/contracts/Marketplace.sol",
  "abi": [
    {
      "inputs": [
        {
          "internalType": "uint256",
          "name": "_feePercent",
          "type": "uint256"
        }
      ],
      "stateMutability": "nonpayable",
      "type": "constructor"
    },
    {
      "anonymous": false,
      "inputs": [
        {
          "indexed": false,
          "internalType": "uint256",
          "name": "itemId",
          "type": "uint256"
        },
        {
          "indexed": true,
          "internalType": "address",
          "name": "nft",
          "type": "address"
        },
        {
          "indexed": false,
          "internalType": "uint256",
          "name": "propertyId",
          "type": "uint256"
        },
        {
          "indexed": false,
          "internalType": "uint256",
          "name": "tokenId",
          "type": "uint256"
        },
        {
          "indexed": false,
          "internalType": "uint256",
          "name": "price",
          "type": "uint256"
        },
        {
          "indexed": true,
          "internalType": "address",
          "name": "seller",
          "type": "address"
        },
        {
          "indexed": true,
          "internalType": "address",
          "name": "buyer",
          "type": "address"
        }
      ],
      "name": "Bought",
      "type": "event"
    },
    {
      "anonymous": false,
      "inputs": [
        {
          "indexed": false,
          "internalType": "uint256",
          "name": "itemId",
          "type": "uint256"
        },
        {
          "indexed": true,
          "internalType": "address",
          "name": "nft",
          "type": "address"
        },
        {
          "indexed": false,
          "internalType": "uint256",
          "name": "propertyId",
          "type": "uint256"
        },
        {
          "indexed": false,
          "internalType": "uint256",
          "name": "tokenId",
          "type": "uint256"
        },
        {
          "indexed": false,
          "internalType": "uint256",
          "name": "price",
          "type": "uint256"
        },
        {
          "indexed": true,
          "internalType": "address",
          "name": "seller",
          "type": "address"
        }
      ],
      "name": "Offered",
      "type": "event"
    },
    {
      "inputs": [],
      "name": "feeAccount",
      "outputs": [
        {
          "internalType": "address payable",
          "name": "",
          "type": "address"
        }
      ],
      "stateMutability": "view",
      "type": "function"
    },
    {
      "inputs": [],
      "name": "feePercent",
      "outputs": [
        {
          "internalType": "uint256",
          "name": "",
          "type": "uint256"
        }
      ],
      "stateMutability": "view",
      "type": "function"
    },
    {
      "inputs": [
        {
          "internalType": "uint256",
          "name": "_itemId",
          "type": "uint256"
        }
      ],
      "name": "getTotalPrice",
      "outputs": [
        {
          "internalType": "uint256",
          "name": "",
          "type": "uint256"
        }
      ],
      "stateMutability": "view",
      "type": "function"
    },
    {
      "inputs": [],
      "name": "itemCount",
      "outputs": [
        {
          "internalType": "uint256",
          "name": "",
          "type": "uint256"
        }
      ],
      "stateMutability": "view",
      "type": "function"
    },
    {
      "inputs": [
        {
          "internalType": "uint256",
          "name": "",
          "type": "uint256"
        }
      ],
      "name": "items",
      "outputs": [
        {
          "internalType": "uint256",
          "name": "itemId",
          "type": "uint256"
        },
        {
          "internalType": "contract FractionalNFT",
          "name": "nft",
          "type": "address"
        },
        {
          "internalType": "uint256",
          "name": "propertyId",
          "type": "uint256"
        },
        {
          "internalType": "uint256",
          "name": "tokenId",
          "type": "uint256"
        },
        {
          "internalType": "uint256",
          "name": "price",
          "type": "uint256"
        },
        {
          "internalType": "address payable",
          "name": "seller",
          "type": "address"
        },
        {
          "internalType": "bool",
          "name": "sold",
          "type": "bool"
        }
      ],
      "stateMutability": "view",
      "type": "function"
    },
    {
      "inputs": [
        {
          "internalType": "contract FractionalNFT",
          "name": "_nft",
          "type": "address"
        },
        {
          "internalType": "uint256",
          "name": "_propertyId",
          "type": "uint256"
        },
        {
          "internalType": "uint256",
          "name": "_tokenId",
          "type": "uint256"
        },
        {
          "internalType": "uint256",
          "name": "_price",
          "type": "uint256"
        }
      ],
      "name": "makeItem",
      "outputs": [],
      "stateMutability": "nonpayable",
      "type": "function"
    },
    {
      "inputs": [
        {
          "internalType": "uint256",
          "name": "_itemId",
          "type": "uint256"
        }
      ],
      "name": "purchaseItem",
      "outputs": [],
      "stateMutability": "payable",
      "type": "function"
    }
  ],
  "bytecode": "0x60c060405234801561001057600080fd5b506040516111ed3803806111ed83398181016040528101906100329190610094565b60016000819055503373ffffffffffffffffffffffffffffffffffffffff1660808173ffffffffffffffffffffffffffffffffffffffff1660601b815250508060a08181525050506100de565b60008151905061008e816100c7565b92915050565b6000602082840312156100a657600080fd5b60006100b48482850161007f565b91505092915050565b6000819050919050565b6100d0816100bd565b81146100db57600080fd5b50565b60805160601c60a0516110d9610114600039600081816104cc01526105830152600081816101bd01526107a901526110d96000f3fe6080604052600436106100705760003560e01c80637fd6f15c1161004e5780637fd6f15c146100f4578063bfb231d21461011f578063ca7dd37514610162578063d38ea5bf1461019f57610070565b806365e17c9d14610075578063696aae08146100a05780636bfb0d01146100c9575b600080fd5b34801561008157600080fd5b5061008a6101bb565b6040516100979190610b64565b60405180910390f35b3480156100ac57600080fd5b506100c760048036038101906100c291906109de565b6101df565b005b3480156100d557600080fd5b506100de6104c4565b6040516100eb9190610c56565b60405180910390f35b34801561010057600080fd5b506101096104ca565b6040516101169190610c56565b60405180910390f35b34801561012b57600080fd5b5061014660048036038101906101419190610a41565b6104ee565b6040516101599796959493929190610c71565b60405180910390f35b34801561016e57600080fd5b5061018960048036038101906101849190610a41565b61057d565b6040516101969190610c56565b60405180910390f35b6101b960048036038101906101b49190610a41565b6105e0565b005b7f000000000000000000000000000000000000000000000000000000000000000081565b60026000541415610225576040517f08c379a000000000000000000000000000000000000000000000000000000000815260040161021c90610c36565b60405180910390fd5b600260008190555060008111610270576040517f08c379a000000000000000000000000000000000000000000000000000000000815260040161026790610bd6565b60405180910390fd5b6001600081548092919061028390610edb565b91905055508373ffffffffffffffffffffffffffffffffffffffff166323b872dd3330856040518463ffffffff1660e01b81526004016102c593929190610b7f565b600060405180830381600087803b1580156102df57600080fd5b505af11580156102f3573d6000803e3d6000fd5b505050506040518060e0016040528060015481526020018573ffffffffffffffffffffffffffffffffffffffff1681526020018481526020018381526020018281526020013373ffffffffffffffffffffffffffffffffffffffff168152602001600015158152506002600060015481526020019081526020016000206000820151816000015560208201518160010160006101000a81548173ffffffffffffffffffffffffffffffffffffffff021916908373ffffffffffffffffffffffffffffffffffffffff16021790555060408201518160020155606082015181600301556080820151816004015560a08201518160050160006101000a81548173ffffffffffffffffffffffffffffffffffffffff021916908373ffffffffffffffffffffffffffffffffffffffff16021790555060c08201518160050160146101000a81548160ff0219169083151502179055509050503373ffffffffffffffffffffffffffffffffffffffff168473ffffffffffffffffffffffffffffffffffffffff167f8a7207dec41e68d1fbb358baac1c6ead9b1741d156d9bb551ae56d77c4a04e936001548686866040516104ae9493929190610ce0565b60405180910390a3600160008190555050505050565b60015481565b7f000000000000000000000000000000000000000000000000000000000000000081565b60026020528060005260406000206000915090508060000154908060010160009054906101000a900473ffffffffffffffffffffffffffffffffffffffff16908060020154908060030154908060040154908060050160009054906101000a900473ffffffffffffffffffffffffffffffffffffffff16908060050160149054906101000a900460ff16905087565b600060647f000000000000000000000000000000000000000000000000000000000000000060646105ae9190610d36565b60026000858152602001908152602001600020600401546105cf9190610dbd565b6105d99190610d8c565b9050919050565b60026000541415610626576040517f08c379a000000000000000000000000000000000000000000000000000000000815260040161061d90610c36565b60405180910390fd5b600260008190555060006106398261057d565b9050600060026000848152602001908152602001600020905060008311801561066457506001548311155b6106a3576040517f08c379a000000000000000000000000000000000000000000000000000000000815260040161069a90610c16565b60405180910390fd5b813410156106e6576040517f08c379a00000000000000000000000000000000000000000000000000000000081526004016106dd90610bf6565b60405180910390fd5b8060050160149054906101000a900460ff1615610738576040517f08c379a000000000000000000000000000000000000000000000000000000000815260040161072f90610bb6565b60405180910390fd5b8060050160009054906101000a900473ffffffffffffffffffffffffffffffffffffffff1673ffffffffffffffffffffffffffffffffffffffff166108fc82600401549081150290604051600060405180830381858888f193505050501580156107a6573d6000803e3d6000fd5b507f000000000000000000000000000000000000000000000000000000000000000073ffffffffffffffffffffffffffffffffffffffff166108fc8260040154846107f19190610e17565b9081150290604051600060405180830381858888f1935050505015801561081c573d6000803e3d6000fd5b5060018160050160146101000a81548160ff0219169083151502179055508060010160009054906101000a900473ffffffffffffffffffffffffffffffffffffffff1673ffffffffffffffffffffffffffffffffffffffff166323b872dd303384600301546040518463ffffffff1660e01b815260040161089f93929190610b7f565b600060405180830381600087803b1580156108b957600080fd5b505af11580156108cd573d6000803e3d6000fd5b505050503373ffffffffffffffffffffffffffffffffffffffff168160050160009054906101000a900473ffffffffffffffffffffffffffffffffffffffff1673ffffffffffffffffffffffffffffffffffffffff168260010160009054906101000a900473ffffffffffffffffffffffffffffffffffffffff1673ffffffffffffffffffffffffffffffffffffffff167f5c282128ef874365df343162aa2336aae20550adb799aeaf030315e7308978f18685600201548660030154876004015460405161099f9493929190610ce0565b60405180910390a45050600160008190555050565b6000813590506109c381611075565b92915050565b6000813590506109d88161108c565b92915050565b600080600080608085870312156109f457600080fd5b6000610a02878288016109b4565b9450506020610a13878288016109c9565b9350506040610a24878288016109c9565b9250506060610a35878288016109c9565b91505092959194509250565b600060208284031215610a5357600080fd5b6000610a61848285016109c9565b91505092915050565b610a7381610e5d565b82525050565b610a8281610e4b565b82525050565b610a9181610e6f565b82525050565b610aa081610eb7565b82525050565b6000610ab3601183610d25565b9150610abe82610f82565b602082019050919050565b6000610ad6601f83610d25565b9150610ae182610fab565b602082019050919050565b6000610af9603383610d25565b9150610b0482610fd4565b604082019050919050565b6000610b1c601283610d25565b9150610b2782611023565b602082019050919050565b6000610b3f601f83610d25565b9150610b4a8261104c565b602082019050919050565b610b5e81610ead565b82525050565b6000602082019050610b796000830184610a6a565b92915050565b6000606082019050610b946000830186610a79565b610ba16020830185610a79565b610bae6040830184610b55565b949350505050565b60006020820190508181036000830152610bcf81610aa6565b9050919050565b60006020820190508181036000830152610bef81610ac9565b9050919050565b60006020820190508181036000830152610c0f81610aec565b9050919050565b60006020820190508181036000830152610c2f81610b0f565b9050919050565b60006020820190508181036000830152610c4f81610b32565b9050919050565b6000602082019050610c6b6000830184610b55565b92915050565b600060e082019050610c86600083018a610b55565b610c936020830189610a97565b610ca06040830188610b55565b610cad6060830187610b55565b610cba6080830186610b55565b610cc760a0830185610a6a565b610cd460c0830184610a88565b98975050505050505050565b6000608082019050610cf56000830187610b55565b610d026020830186610b55565b610d0f6040830185610b55565b610d1c6060830184610b55565b95945050505050565b600082825260208201905092915050565b6000610d4182610ead565b9150610d4c83610ead565b9250827fffffffffffffffffffffffffffffffffffffffffffffffffffffffffffffffff03821115610d8157610d80610f24565b5b828201905092915050565b6000610d9782610ead565b9150610da283610ead565b925082610db257610db1610f53565b5b828204905092915050565b6000610dc882610ead565b9150610dd383610ead565b9250817fffffffffffffffffffffffffffffffffffffffffffffffffffffffffffffffff0483118215151615610e0c57610e0b610f24565b5b828202905092915050565b6000610e2282610ead565b9150610e2d83610ead565b925082821015610e4057610e3f610f24565b5b828203905092915050565b6000610e5682610e8d565b9050919050565b6000610e6882610e8d565b9050919050565b60008115159050919050565b6000610e8682610e4b565b9050919050565b600073ffffffffffffffffffffffffffffffffffffffff82169050919050565b6000819050919050565b6000610ec282610ec9565b9050919050565b6000610ed482610e8d565b9050919050565b6000610ee682610ead565b91507fffffffffffffffffffffffffffffffffffffffffffffffffffffffffffffffff821415610f1957610f18610f24565b5b600182019050919050565b7f4e487b7100000000000000000000000000000000000000000000000000000000600052601160045260246000fd5b7f4e487b7100000000000000000000000000000000000000000000000000000000600052601260045260246000fd5b7f6974656d20616c726561647920736f6c64000000000000000000000000000000600082015250565b7f5072696365206d7573742062652067726561746572207468616e207a65726f00600082015250565b7f6e6f7420656e6f75676820657468657220746f20636f766572206974656d207060008201527f7269636520616e64206d61726b65742066656500000000000000000000000000602082015250565b7f6974656d20646f65736e27742065786973740000000000000000000000000000600082015250565b7f5265656e7472616e637947756172643a207265656e7472616e742063616c6c00600082015250565b61107e81610e7b565b811461108957600080fd5b50565b61109581610ead565b81146110a057600080fd5b5056fea2646970667358221220411794ce286998590298b70179a0757f332d44f6f9eb400acf01726ffd9ec10e64736f6c63430008040033",
  "linkReferences": {},
  "deployedLinkReferences": {}
}